:03000000020FDD0F
:0C0FDD00787FE4F6D8FD7581330208002F
:100B310041540041542B434D47463D310041542B14
:100B4100434D47533D002B3937373937343533302F
:100B5100363631360054616E6B20323A2000202542
:100B61000054616E6B20313A2000434845434B49A4
:100B71004E472057415445520020202020204C450B
:100B810056454C004D6F746F72206973204F4E2093
:100B910021210054616E6B31204E65617220456DDB
:100BA1007074792021210054616E6B203120456DD4
:100BB1007074792C204D6F746F72206973204F4EC1
:100BC1000046696C696E672054616E6B004D6F74ED
:100BD1006F72206973204F46462021210054616EB7
:100BE1006B20312046756C6C0054616E6B20312096
:100BF10046756C6C2C204D6F746F72206973204F99
:100C010046460054616E6B203220456D7074790048
:100C110054616E6B203120456D70747900426F74A0
:0E0C2100682054616E6B7320456D707479000D
:080EC700C291D2927F027E006D
:100ECF00E4FDFCC3ED9FEC9E5015E4FBFA0BBB0059
:0F0EDF00010ABA04F8BBFBF50DBD00010C80E45D
:010EEE0022E1
:100F8B00EF1FAC0670011E4C600A00000000000051
:050F9B00000080EC22C3
:100F730075985053890F438920758DFD758BFDD26C
:080F83008E7FF47E01020ECF07
:080FF3008F993099FDC299228B
:100EEF008B0B8A0C890DAB0BAA0CA90D12099A60FA
:100EFF0013050DE50D7002050C14F912099AFF1276
:050F0F000FF380E22257
:100CEF008B088A09890A7BFF7A0B7931120EEF7F05
:100CFF000D120FF37F647E00120ECF7BFF7A0B79FC
:100D0F0034120EEF7F0D120FF37F64120ECF7BFFA5
:100D1F007A0B793E120EEF7F22120FF37BFF7A0BC5
:100D2F007947120EEF7F22120FF37F0D120FF37F11
:100D3F0064120ECFAB08AA09A90A120EEF7F1A127E
:070D4F000FF37F64020ECFD9
:090FCA00C2937F01120FD37F8056
:0A0FD3008FA0C290120EC7C2922236
:0A0FE9008FA0D290120EC7C2922210
:060E9C007BFF7A0B798553
:100EA2008B118A128913AB11AA12A91312099A6023
:100EB200130513E5137002051214F912099AFF12B1
:050EC2000FE980E222AF
:100F58007F38120FD37F0C120FD37F06120FD37F67
:0B0F680001120FD37F027E00020ECFAB
:0E0C2F008F148E138D128C118B158A16891757
:100C3D00E4F518FFFEFDFCAB14AA13A912A811C30D
:100C4D00120AB57017AB15AA16A91774301209B38D
:100C5D00AB15AA16A917900001020CEAE4FFFEFDE0
:100C6D00FCAB14AA13A912A811D3120AB5403AE489
:100C7D007B0AFAF9F8AF14AE13AD12AC11120A23B8
:100C8D00EB2430FFAE180518741A2EF8A607AF1412
:100C9D00AE13AD12AC11E47B0AFAF9F8120A238FE8
:100CAD00148E138D128C1180B3E4F519E519C395CB
:100CBD0018501EC3E5189519FF74192FF8E6AB15DA
:100CCD00AA16A9178519827583001209C505198001
:100CDD00DBAB15AA16A917851982758300E41209D5
:010CED00C541
:010CEE0022E3
:100FA000C2947F017E00120F8BD2947F0A7E0012C2
:050FB0000F8BC294222A
:100FB500C2967F017E00120F8BD2967F0A7E0012A9
:050FC5000F8BC2962213
:100DA600E4F50BF50AF509F5083095FDE58954F0EB
:100DB6004401F589E4F58CF58AD28C2095FDC28C28
:100DC600AF8CEFFEAD8AEDFF7C047D3D120AE0E4B8
:100DD6007BE87A03F9F8120A238F0B8E0A8D098CA9
:010DE6000804
:010DE70022E9
:100DE800E4F50BF50AF509F5083097FDE58954F0A7
:100DF8004401F589E4F58CF58AD28C2097FDC28CE4
:100E0800AF8CEFFEAD8AEDFF7C047D3D120AE0E475
:100E18007BE87A03F9F8120A238F0B8E0A8D098C66
:010E280008C1
:010E290022A6
:060D56008B088A09890ADE
:100D5C00E47B3AFAF9F8120A238F0E8E0D8D0C8C67
:100D6C000BE47F64FEFDFCAB0EAA0DA90CA80BD303
:100D7C00120AB5400AE4750E64F50DF50CF50BC3BB
:100D8C007464950EFFE4950DFEE4950CFDE4950B53
:0A0D9C00FCAB08AA09A90A020AC666
:080E2A008F0B8E0A8D098C0864
:100E32007F80120FD37BFF7A0B7956120EA2AF0B73
:100E4200AE0AAD09AC087B007A00790C120C2F7B3C
:100E5200007A00790C120EA27BFF7A0B795F020EE8
:010E6200A2ED
:080E63008F0B8E0A8D098C082B
:100E6B007FC0120FD37BFF7A0B7962120EA2AF0BEE
:100E7B00AE0AAD09AC087B007A00790C120C2F7B03
:100E8B00007A00790C120EA27BFF7A0B795F020EAF
:010E9B00A2B4
:100F1400120FA0120DA68F2F8E2E8D2D8C2C7B00E0
:100F24007A007930120D56AF33AE32AD31AC3002A7
:020F34000E2A83
:100F3600120FB5120DE88F278E268D258C247B0087
:100F46007A007928120D56AF2BAE2AAD29AC2802AD
:020F56000E6328
:10080000C293120F587F80120FD37BFF7A0B796B44
:10081000120EA27FC0120FD37BFF7A0B797A120ED1
:10082000A27FF47E01120ECF7F01120FD37F01123F
:100830000FD3120F147F327E00120ECF120F367FAD
:10084000C87E00120ECFE47F0AFDFCAB33AA32A9AA
:1008500031A830C3120AB550030208F3E47F2DFE1D
:10086000FDFCAB2BAA2AA929A828D3120AB540035C
:100870000208F3D293120FCC120E9C7FC0120FD33A
:100880007BFF7A0B7994120EA2120F737BFF7A0B07
:1008900079A8120CEFE47F5FFEFDFCAB2BAA2AA91E
:1008A00029A828D3120AB55022D293120FCC120EC7
:1008B0009C7FC0120FD37BFF7A0B79C2120EA2125B
:1008C0000F367F647E00120ECF80CA120FCA7BFFE4
:1008D0007A0B79CE120EA27FC0120FD37BFF7A0B58
:1008E00079DE120EA2120F36120F737BFF7A0B798C
:1008F000EA804AE47F0AFEFDFCAB33AA32A931A8A4
:1009000030C3120AB5503CE47F19FEFDFCAB2BAAA4
:100910002AA929A828120AB55029120FCA7BFF7AE2
:100920000C7904120EA27FC0120FD37BFF7A0C79D0
:1009300011120EA2120F737BFF7A0C791E120CEFAC
:1009400002082DE47F0AFEFDFCAB33AA32A931A8D0
:1009500030C3120AB5400302082DE47F5AFEFDFCA5
:10096000AB2BAA2AA929A828C3120AB5500302084A
:100970002D120FCA7BFF7A0B79DE120EA27FC012F6
:100980000FD37BFF7A0C7904120EA2120F737BFF38
:0A0990007A0C7904120CEF02082D16
:10099A00BB010689828A83E0225002E722BBFE025B
:0909AA00E32289828A83E493228E
:1009B300BB010689828A83F0225002F722BBFE0123
:0209C300F3221D
:1009C500F8BB010DE58229F582E5833AF583E8F068
:1009D500225006E92582C8F622BBFE05E92582C814
:0209E500F222FC
:1009E70075F008758200EF2FFFEE33FECD33CDCCC7
:1009F70033CCC58233C5829BED9AEC99E58298404A
:100A07000CF582EE9BFEED9AFDEC99FC0FD5F0D626
:100A1700E4CEFBE4CDFAE4CCF9A88222B800C1B950
:100A27000059BA002DEC8BF084CFCECDFCE5F0CB8E
:100A3700F97818EF2FFFEE33FEED33FDEC33FCEBC7
:100A470033FB10D703994004EB99FB0FD8E5E4F982
:100A5700FA227818EF2FFFEE33FEED33FDEC33FC6F
:100A6700C933C910D7059BE99A4007EC9BFCE99A63
:100A7700F90FD8E0E4C9FAE4CCFB2275F010EF2FA8
:100A8700FFEE33FEED33FDCC33CCC833C810D707A8
:100A97009BEC9AE899400AED9BFDEC9AFCE899F8E3
:0E0AA7000FD5F0DAE4CDFBE4CCFAE4C8F92276
:100AB500EB9FF5F0EA9E42F0E99D42F0E89C45F097
:010AC500220E
:100AC600BB010789828A83020B195005E9F8020BDC
:0A0AD6000DBBFE05E9F8020B252216
:100AE000EC8EF0A4CCC5F0CCCDF8EFA4CEC5F02DA3
:100AF000FDE43CFCE8A42EC8C5F03DFDE43CFCEF61
:0D0B0000A4FFE5F028FEE43DFDE43CFC22EE
:0C0B0D00ECF608EDF608EEF608EFF62214
:0C0B1900ECF0A3EDF0A3EEF0A3EFF0224F
:0C0B2500ECF208EDF208EEF208EFF2220C
:00000001FF
